{
  "contractName": "LendingContract",
  "abi": [
    {
      "inputs": [
        {
          "internalType": "address",
          "name": "",
          "type": "address"
        }
      ],
      "name": "balances",
      "outputs": [
        {
          "internalType": "uint256",
          "name": "",
          "type": "uint256"
        }
      ],
      "stateMutability": "view",
      "type": "function",
      "constant": true
    },
    {
      "inputs": [],
      "name": "totalLiquidity",
      "outputs": [
        {
          "internalType": "uint256",
          "name": "",
          "type": "uint256"
        }
      ],
      "stateMutability": "view",
      "type": "function",
      "constant": true
    },
    {
      "inputs": [
        {
          "internalType": "uint256",
          "name": "amount",
          "type": "uint256"
        }
      ],
      "name": "deposit",
      "outputs": [],
      "stateMutability": "nonpayable",
      "type": "function"
    },
    {
      "inputs": [
        {
          "internalType": "uint256",
          "name": "amount",
          "type": "uint256"
        }
      ],
      "name": "borrow",
      "outputs": [],
      "stateMutability": "nonpayable",
      "type": "function"
    }
  ],
  "bytecode": "0x608060405234801561001057600080fd5b5061064f806100206000396000f3fe608060405234801561001057600080fd5b506004361061004c5760003560e01c806315770f921461005157806327e235e31461006f578063b6b55f251461009f578063c5ebeaec146100bb575b600080fd5b6100596100d7565b60405161006691906102bb565b60405180910390f35b61008960048036038101906100849190610339565b6100dd565b60405161009691906102bb565b60405180910390f35b6100b960048036038101906100b49190610392565b6100f5565b005b6100d560048036038101906100d09190610392565b6101a9565b005b60015481565b60006020528060005260406000206000915090505481565b60008111610138576040517f08c379a000000000000000000000000000000000000000000000000000000000815260040161012f90610442565b60405180910390fd5b806000803373ffffffffffffffffffffffffffffffffffffffff1673ffffffffffffffffffffffffffffffffffffffff16815260200190815260200160002060008282546101869190610491565b92505081905550806001600082825461019f9190610491565b9250508190555050565b600081116101ec576040517f08c379a00000000000000000000000000000000000000000000000000000000081526004016101e390610559565b60405180910390fd5b600154811115610231576040517f08c379a0000000000000000000000000000000000000000000000000000000008152600401610228906105c5565b60405180910390fd5b806000803373ffffffffffffffffffffffffffffffffffffffff1673ffffffffffffffffffffffffffffffffffffffff168152602001908152602001600020600082825461027f91906105e5565b92505081905550806001600082825461029891906105e5565b9250508190555050565b6000819050919050565b6102b5816102a2565b82525050565b60006020820190506102d060008301846102ac565b92915050565b600080fd5b600073ffffffffffffffffffffffffffffffffffffffff82169050919050565b6000610306826102db565b9050919050565b610316816102fb565b811461032157600080fd5b50565b6000813590506103338161030d565b92915050565b60006020828403121561034f5761034e6102d6565b5b600061035d84828501610324565b91505092915050565b61036f816102a2565b811461037a57600080fd5b50565b60008135905061038c81610366565b92915050565b6000602082840312156103a8576103a76102d6565b5b60006103b68482850161037d565b91505092915050565b600082825260208201905092915050565b7f4465706f73697420616d6f756e74206d7573742062652067726561746572207460008201527f68616e2030000000000000000000000000000000000000000000000000000000602082015250565b600061042c6025836103bf565b9150610437826103d0565b604082019050919050565b6000602082019050818103600083015261045b8161041f565b9050919050565b7f4e487b7100000000000000000000000000000000000000000000000000000000600052601160045260246000fd5b600061049c826102a2565b91506104a7836102a2565b9250827fffffffffffffffffffffffffffffffffffffffffffffffffffffffffffffffff038211156104dc576104db610462565b5b828201905092915050565b7f426f72726f7720616d6f756e74206d757374206265206772656174657220746860008201527f616e203000000000000000000000000000000000000000000000000000000000602082015250565b60006105436024836103bf565b915061054e826104e7565b604082019050919050565b6000602082019050818103600083015261057281610536565b9050919050565b7f496e73756666696369656e74206c697175696469747900000000000000000000600082015250565b60006105af6016836103bf565b91506105ba82610579565b602082019050919050565b600060208201905081810360008301526105de816105a2565b9050919050565b60006105f0826102a2565b91506105fb836102a2565b92508282101561060e5761060d610462565b5b82820390509291505056fea26469706673582212203a5236f6805f9e96a67c3248c2ca904e40e60e500b4e060b633c48e4312dda8b64736f6c634300080d0033",
  "immutableReferences": {},
  "source": "//SPDX-License-Identifier:MIT\r\npragma solidity >=0.5.0 <0.9.0;\r\n\r\ncontract LendingContract {\r\n    mapping(address => uint256) public balances;\r\n    uint256 public totalLiquidity;\r\n\r\n    function deposit(uint256 amount) external {\r\n        require(amount > 0, \"Deposit amount must be greater than 0\");\r\n        balances[msg.sender] += amount;\r\n        totalLiquidity += amount;\r\n    }\r\n\r\n    function borrow(uint256 amount) external {\r\n        require(amount > 0, \"Borrow amount must be greater than 0\");\r\n        require(amount <= totalLiquidity, \"Insufficient liquidity\");\r\n        balances[msg.sender] -= amount;\r\n        totalLiquidity -= amount;\r\n    }\r\n}\r\n",
  "sourcePath": "D:\\lending\\contracts\\LendingContract.sol",
  "compiler": {
    "name": "solc",
    "version": "0.8.13+commit.abaa5c0e.Emscripten.clang"
  },
  "schemaVersion": "3.4.16",
  "updatedAt": "2023-10-04T12:41:23.598Z",
  "networkType": "ethereum",
  "devdoc": {
    "kind": "dev",
    "methods": {},
    "version": 1
  },
  "userdoc": {
    "kind": "user",
    "methods": {},
    "version": 1
  }
}